{
  "_format": "hh-sol-artifact-1",
  "contractName": "GTX",
  "sourceName": "contracts/GTX.sol",
  "abi": [
    {
      "inputs": [],
      "stateMutability": "nonpayable",
      "type": "constructor"
    },
    {
      "anonymous": false,
      "inputs": [
        {
          "indexed": true,
          "internalType": "address",
          "name": "owner",
          "type": "address"
        },
        {
          "indexed": true,
          "internalType": "address",
          "name": "spender",
          "type": "address"
        },
        {
          "indexed": false,
          "internalType": "uint256",
          "name": "value",
          "type": "uint256"
        }
      ],
      "name": "Approval",
      "type": "event"
    },
    {
      "anonymous": false,
      "inputs": [
        {
          "indexed": true,
          "internalType": "address",
          "name": "from",
          "type": "address"
        },
        {
          "indexed": true,
          "internalType": "address",
          "name": "to",
          "type": "address"
        },
        {
          "indexed": false,
          "internalType": "uint256",
          "name": "value",
          "type": "uint256"
        }
      ],
      "name": "Transfer",
      "type": "event"
    },
    {
      "inputs": [
        {
          "internalType": "address",
          "name": "",
          "type": "address"
        },
        {
          "internalType": "address",
          "name": "",
          "type": "address"
        }
      ],
      "name": "allowance",
      "outputs": [
        {
          "internalType": "uint256",
          "name": "",
          "type": "uint256"
        }
      ],
      "stateMutability": "view",
      "type": "function"
    },
    {
      "inputs": [
        {
          "internalType": "address",
          "name": "spender",
          "type": "address"
        },
        {
          "internalType": "uint256",
          "name": "value",
          "type": "uint256"
        }
      ],
      "name": "approve",
      "outputs": [
        {
          "internalType": "bool",
          "name": "success",
          "type": "bool"
        }
      ],
      "stateMutability": "nonpayable",
      "type": "function"
    },
    {
      "inputs": [
        {
          "internalType": "address",
          "name": "",
          "type": "address"
        }
      ],
      "name": "balanceOf",
      "outputs": [
        {
          "internalType": "uint256",
          "name": "",
          "type": "uint256"
        }
      ],
      "stateMutability": "view",
      "type": "function"
    },
    {
      "inputs": [],
      "name": "decimals",
      "outputs": [
        {
          "internalType": "uint8",
          "name": "",
          "type": "uint8"
        }
      ],
      "stateMutability": "view",
      "type": "function"
    },
    {
      "inputs": [],
      "name": "name",
      "outputs": [
        {
          "internalType": "string",
          "name": "",
          "type": "string"
        }
      ],
      "stateMutability": "view",
      "type": "function"
    },
    {
      "inputs": [],
      "name": "symbol",
      "outputs": [
        {
          "internalType": "string",
          "name": "",
          "type": "string"
        }
      ],
      "stateMutability": "view",
      "type": "function"
    },
    {
      "inputs": [],
      "name": "total",
      "outputs": [
        {
          "internalType": "uint256",
          "name": "",
          "type": "uint256"
        }
      ],
      "stateMutability": "view",
      "type": "function"
    },
    {
      "inputs": [],
      "name": "totalSupply",
      "outputs": [
        {
          "internalType": "uint256",
          "name": "",
          "type": "uint256"
        }
      ],
      "stateMutability": "view",
      "type": "function"
    },
    {
      "inputs": [
        {
          "internalType": "address",
          "name": "to",
          "type": "address"
        },
        {
          "internalType": "uint256",
          "name": "value",
          "type": "uint256"
        }
      ],
      "name": "transfer",
      "outputs": [
        {
          "internalType": "bool",
          "name": "success",
          "type": "bool"
        }
      ],
      "stateMutability": "nonpayable",
      "type": "function"
    },
    {
      "inputs": [
        {
          "internalType": "address",
          "name": "from",
          "type": "address"
        },
        {
          "internalType": "address",
          "name": "to",
          "type": "address"
        },
        {
          "internalType": "uint256",
          "name": "value",
          "type": "uint256"
        }
      ],
      "name": "transferFrom",
      "outputs": [
        {
          "internalType": "bool",
          "name": "success",
          "type": "bool"
        }
      ],
      "stateMutability": "nonpayable",
      "type": "function"
    }
  ],
  "bytecode": "0x60806040523480156200001157600080fd5b50601260ff16600a62000025919062000214565b620f424062000035919062000265565b600081905550600054600160003373ffffffffffffffffffffffffffffffffffffffff1673ffffffffffffffffffffffffffffffffffffffff16815260200190815260200160002081905550620002b0565b7f4e487b7100000000000000000000000000000000000000000000000000000000600052601160045260246000fd5b60008160011c9050919050565b6000808291508390505b60018511156200011557808604811115620000ed57620000ec62000087565b5b6001851615620000fd5780820291505b80810290506200010d85620000b6565b9450620000cd565b94509492505050565b60008262000130576001905062000203565b8162000140576000905062000203565b816001811462000159576002811462000164576200019a565b600191505062000203565b60ff84111562000179576200017862000087565b5b8360020a91508482111562000193576200019262000087565b5b5062000203565b5060208310610133831016604e8410600b8410161715620001d45782820a905083811115620001ce57620001cd62000087565b5b62000203565b620001e38484846001620000c3565b92509050818404811115620001fd57620001fc62000087565b5b81810290505b9392505050565b6000819050919050565b600062000221826200020a565b91506200022e836200020a565b92506200025d7fffffffffffffffffffffffffffffffffffffffffffffffffffffffffffffffff84846200011e565b905092915050565b600062000272826200020a565b91506200027f836200020a565b92508282026200028f816200020a565b91508282048414831517620002a957620002a862000087565b5b5092915050565b610e4080620002c06000396000f3fe608060405234801561001057600080fd5b506004361061009e5760003560e01c8063313ce56711610066578063313ce5671461015d57806370a082311461017b57806395d89b41146101ab578063a9059cbb146101c9578063dd62ed3e146101f95761009e565b806306fdde03146100a3578063095ea7b3146100c157806318160ddd146100f157806323b872dd1461010f5780632ddbd13a1461013f575b600080fd5b6100ab610229565b6040516100b891906109dd565b60405180910390f35b6100db60048036038101906100d69190610a98565b610262565b6040516100e89190610af3565b60405180910390f35b6100f9610354565b6040516101069190610b1d565b60405180910390f35b61012960048036038101906101249190610b38565b61035a565b6040516101369190610af3565b60405180910390f35b6101476106bb565b6040516101549190610b1d565b60405180910390f35b6101656106c4565b6040516101729190610ba7565b60405180910390f35b61019560048036038101906101909190610bc2565b6106c9565b6040516101a29190610b1d565b60405180910390f35b6101b36106e1565b6040516101c091906109dd565b60405180910390f35b6101e360048036038101906101de9190610a98565b61071a565b6040516101f09190610af3565b60405180910390f35b610213600480360381019061020e9190610bef565b610928565b6040516102209190610b1d565b60405180910390f35b6040518060400160405280600881526020017f475458546f6b656e00000000000000000000000000000000000000000000000081525081565b600081600260003373ffffffffffffffffffffffffffffffffffffffff1673ffffffffffffffffffffffffffffffffffffffff16815260200190815260200160002060008573ffffffffffffffffffffffffffffffffffffffff1673ffffffffffffffffffffffffffffffffffffffff168152602001908152602001600020819055508273ffffffffffffffffffffffffffffffffffffffff163373ffffffffffffffffffffffffffffffffffffffff167f8c5be1e5ebec7d5bd14f71427d1e84f3dd0314c0f7b2291e5b200ac8c7c3b925846040516103429190610b1d565b60405180910390a36001905092915050565b60005481565b6000600160008573ffffffffffffffffffffffffffffffffffffffff1673ffffffffffffffffffffffffffffffffffffffff168152602001908152602001600020548211156103de576040517f08c379a00000000000000000000000000000000000000000000000000000000081526004016103d590610c7b565b60405180910390fd5b600260008573ffffffffffffffffffffffffffffffffffffffff1673ffffffffffffffffffffffffffffffffffffffff16815260200190815260200160002060003373ffffffffffffffffffffffffffffffffffffffff1673ffffffffffffffffffffffffffffffffffffffff1681526020019081526020016000205482111561049d576040517f08c379a000000000000000000000000000000000000000000000000000000000815260040161049490610ce7565b60405180910390fd5b600073ffffffffffffffffffffffffffffffffffffffff168373ffffffffffffffffffffffffffffffffffffffff160361050c576040517f08c379a000000000000000000000000000000000000000000000000000000000815260040161050390610d53565b60405180910390fd5b81600160008673ffffffffffffffffffffffffffffffffffffffff1673ffffffffffffffffffffffffffffffffffffffff168152602001908152602001600020600082825461055b9190610da2565b9250508190555081600160008573ffffffffffffffffffffffffffffffffffffffff1673ffffffffffffffffffffffffffffffffffffffff16815260200190815260200160002060008282546105b19190610dd6565b9250508190555081600260008673ffffffffffffffffffffffffffffffffffffffff1673ffffffffffffffffffffffffffffffffffffffff16815260200190815260200160002060003373ffffffffffffffffffffffffffffffffffffffff1673ffffffffffffffffffffffffffffffffffffffff16815260200190815260200160002060008282546106449190610da2565b925050819055508273ffffffffffffffffffffffffffffffffffffffff168473ffffffffffffffffffffffffffffffffffffffff167fddf252ad1be2c89b69c2b068fc378daa952ba7f163c4a11628f55a4df523b3ef846040516106a89190610b1d565b60405180910390a3600190509392505050565b60008054905090565b601281565b60016020528060005260406000206000915090505481565b6040518060400160405280600381526020017f475458000000000000000000000000000000000000000000000000000000000081525081565b6000600160003373ffffffffffffffffffffffffffffffffffffffff1673ffffffffffffffffffffffffffffffffffffffff1681526020019081526020016000205482111561079e576040517f08c379a000000000000000000000000000000000000000000000000000000000815260040161079590610c7b565b60405180910390fd5b600073ffffffffffffffffffffffffffffffffffffffff168373ffffffffffffffffffffffffffffffffffffffff160361080d576040517f08c379a000000000000000000000000000000000000000000000000000000000815260040161080490610d53565b60405180910390fd5b81600160003373ffffffffffffffffffffffffffffffffffffffff1673ffffffffffffffffffffffffffffffffffffffff168152602001908152602001600020600082825461085c9190610da2565b9250508190555081600160008573ffffffffffffffffffffffffffffffffffffffff1673ffffffffffffffffffffffffffffffffffffffff16815260200190815260200160002060008282546108b29190610dd6565b925050819055508273ffffffffffffffffffffffffffffffffffffffff163373ffffffffffffffffffffffffffffffffffffffff167fddf252ad1be2c89b69c2b068fc378daa952ba7f163c4a11628f55a4df523b3ef846040516109169190610b1d565b60405180910390a36001905092915050565b6002602052816000526040600020602052806000526040600020600091509150505481565b600081519050919050565b600082825260208201905092915050565b60005b8381101561098757808201518184015260208101905061096c565b60008484015250505050565b6000601f19601f8301169050919050565b60006109af8261094d565b6109b98185610958565b93506109c9818560208601610969565b6109d281610993565b840191505092915050565b600060208201905081810360008301526109f781846109a4565b905092915050565b600080fd5b600073ffffffffffffffffffffffffffffffffffffffff82169050919050565b6000610a2f82610a04565b9050919050565b610a3f81610a24565b8114610a4a57600080fd5b50565b600081359050610a5c81610a36565b92915050565b6000819050919050565b610a7581610a62565b8114610a8057600080fd5b50565b600081359050610a9281610a6c565b92915050565b60008060408385031215610aaf57610aae6109ff565b5b6000610abd85828601610a4d565b9250506020610ace85828601610a83565b9150509250929050565b60008115159050919050565b610aed81610ad8565b82525050565b6000602082019050610b086000830184610ae4565b92915050565b610b1781610a62565b82525050565b6000602082019050610b326000830184610b0e565b92915050565b600080600060608486031215610b5157610b506109ff565b5b6000610b5f86828701610a4d565b9350506020610b7086828701610a4d565b9250506040610b8186828701610a83565b9150509250925092565b600060ff82169050919050565b610ba181610b8b565b82525050565b6000602082019050610bbc6000830184610b98565b92915050565b600060208284031215610bd857610bd76109ff565b5b6000610be684828501610a4d565b91505092915050565b60008060408385031215610c0657610c056109ff565b5b6000610c1485828601610a4d565b9250506020610c2585828601610a4d565b9150509250929050565b7f496e73756666696369656e742062616c616e6365000000000000000000000000600082015250565b6000610c65601483610958565b9150610c7082610c2f565b602082019050919050565b60006020820190508181036000830152610c9481610c58565b9050919050565b7f416c6c6f77616e63652065786365656465640000000000000000000000000000600082015250565b6000610cd1601283610958565b9150610cdc82610c9b565b602082019050919050565b60006020820190508181036000830152610d0081610cc4565b9050919050565b7f496e76616c696420616464726573730000000000000000000000000000000000600082015250565b6000610d3d600f83610958565b9150610d4882610d07565b602082019050919050565b60006020820190508181036000830152610d6c81610d30565b9050919050565b7f4e487b7100000000000000000000000000000000000000000000000000000000600052601160045260246000fd5b6000610dad82610a62565b9150610db883610a62565b9250828203905081811115610dd057610dcf610d73565b5b92915050565b6000610de182610a62565b9150610dec83610a62565b9250828201905080821115610e0457610e03610d73565b5b9291505056fea264697066735822122030173165770b28e741bbb3214e47cc716076d0d2134baa60e199d9be81c4c02264736f6c63430008150033",
  "linkReferences": {},
  "deployedLinkReferences": {}
}